:1000000014C02EC047C02CC02BC02AC057C028C067
:1000100027C026C025C024C023C022C021C020C0C4
:100020001FC01EC01DC01CC01BC011241FBECFE5B9
:10003000D1E0DEBFCDBF10E0A0E6B0E0ECE0F3E041
:1000400002C005900D92A437B107D9F720E0A4E7CC
:10005000B0E001C01D92AD37B207E1F790D054C1B6
:10006000CFCF88E888BB089598B388E0892788BBFC
:10007000089518BA089581E188BB089598B381E086
:10008000892788BB089510BE85E083BF12BE82E039
:1000900089BF08951F920F920FB60F9211248F936C
:1000A0009F9381E090E090937500809374009F91FE
:1000B0008F910F900FBE0F901F9018951F920F9267
:1000C0000FB60F9211242F933F934F935F936F932B
:1000D0007F938F939F93AF93BF93EF93FF93809101
:1000E0007A0090917B008130910519F08F30910555
:1000F00071F4E0917C00F0E0EE0FFF1FEE0FFF1FA8
:10010000E05AFF4F0190F081E02D09950FC04E9706
:1001100069F4809176009091770001969093770032
:100120008093760010927B0010927A008091760086
:10013000909177000A9749F4809178009091790026
:100140000196909379008093780080917A00909145
:100150007B00019690937B0080937A00FF91EF9152
:10016000BF91AF919F918F917F916F915F914F91CF
:100170003F912F910F900FBE0F901F90189589E916
:1001800087BB80E88BBF88E085BF7DDF7894D4E0B3
:10019000C2E001E010E0FF24F39483E0E82E8091B8
:1001A0007C00823009F445C028F4882351F0813066
:1001B00089F1F7CF833009F468C0843009F485C031
:1001C000F0CFE0916000F09161000995809174009A
:1001D00090917500019719F72091620030916300AA
:1001E000809178009091790082179307C4F2F09281
:1001F0007C0010927B0010927A001092790010928D
:10020000780010927700109276001092750010928C
:100210007400C5CF20916600309167008091760010
:10022000909177002817390709F0B9CFC0937C0067
:100230003FC0E0916800F0916900099520916A0043
:1002400030916B00809176009091770028173907E4
:1002500009F0A5CF10927B0010927A0010927900DD
:1002600010927800109277001092760080917400BE
:1002700090917500009719F4E0927C0090CF01975F
:1002800009F08DCF10927C008ACFE0916C00F09144
:100290006D00099520916E0030916F00809178007B
:1002A00090917900821793070CF479CFD0937C005A
:1002B00010927B0010927A001092790010927800D0
:1002C00010927700109276006ACF209172003091E0
:1002D000730080917600909177002817390709F014
:1002E0005ECFC0937C0010927B0010927A00109237
:1002F0007900109278001092770010927600109397
:0C0300007500009374004BCFF894FFCF01
:10030C0031000A0034000300390001003B000A00F0
:04031C003E0003009C
:00000001FF
